:100000000C942A000C9447000C9447000C94470071
:100010000C9444010C9447000C9447000C94470046
:100020000C9447000C9447000C9447000C94470034
:100030000C9447000C9447000C9447000C94470024
:100040000C9447000C9447000C9447000C94470014
:100050000C94470011241FBECFE5D8E0DEBFCDBF12
:1000600010E0A0E6B0E0E2ECF5E002C005900D92F1
:10007000AC37B107D9F720E0ACE7B0E001C01D9282
:10008000A139B207E1F70E94CA020C94DF020C9476
:10009000000084EA86BF06B607FEFDCF089583B947
:1000A00084E886BF06B607FEFDCF0895CF93DF93A1
:1000B000C82FD62F0E9449008D2F0E944F008C2FF1
:1000C0000E944F0084E986BFDF91CF910895CF93BE
:1000D000C82F90919000892F8460809390006EE4E7
:1000E0000E94560085E88A95F1F70000C295C07F0E
:1000F000809190006EE48C2B0E94560080919000BD
:100100008B7F809390006EE40E94560085E88A956C
:10011000F1F70000CF9108951F93CF93DF93182F2D
:10012000C82FD0E0D595C795D595C795D595C795D6
:10013000D595C795611109C0809190008E7F8093FD
:1001400090006EE40E94560008C08091900081608B
:10015000809390006EE40E9456008C2F0E946700EE
:10016000812F0E946700DF91CF911F910895CF9357
:10017000C82F809190008160809390006EE40E946F
:1001800056008C2F82958F700E9467008C2F0E94E2
:100190006700CF9108958FE295E70197F1F700C0CE
:1001A000000083E00E9467008FE39FE10197F1F771
:1001B00000C0000083E00E94670087EC90E0019798
:1001C000F1F700C0000083E00E9467008FEC97E029
:1001D0000197F1F700C0000082E00E9467008FECF9
:1001E00097E00197F1F700C0000060E088E20E940C
:1001F0008C008FEC97E00197F1F700C0000060E001
:100200008CE00E948C008FEC97E00197F1F700C022
:10021000000060E086E00E948C008FEC97E0019780
:10022000F1F700C0000080919000886080939000FA
:100230006EE40E945600809190008D7F8093900024
:100240006EE40E945600089560E081E00E948C00F8
:1002500087EB9BE00197F1F700C0000008951F9322
:10026000CF93DF93EC018881882351F010E00E9446
:10027000B7001F5FFE01E10FF11D80818111F7CFF3
:10028000DF91CF911F9108951F920F920FB60F9299
:1002900011242F933F934F935F936F937F938F938B
:1002A0009F93AF93BF93EF93FF9389B3837090E0D5
:1002B00090938F0080938E0020918C0030918D0060
:1002C0008217930709F483C02130310509F445C032
:1002D0001CF4232B29F177C02230310529F023307B
:1002E000310509F455C06FC08330910559F4209150
:1002F0008800309189002F5F3F4F30938900209311
:10030000880061C0009709F05EC02091860030919E
:1003100087002F5F3F4F309387002093860053C0A4
:100320008230910559F420918800309189002F5F27
:100330003F4F309389002093880045C0813091055C
:1003400009F041C020918600309187002F5F3F4F18
:10035000309387002093860036C0009759F420918F
:100360008800309189002F5F3F4F309389002093A0
:10037000880029C08330910531F5209186003091A5
:1003800087002F5F3F4F30938700209386001BC06C
:100390008130910559F420918800309189002F5FB8
:1003A0003F4F30938900209388000DC08230910523
:1003B00051F420918600309187002F5F3F4F30939A
:1003C00087002093860090938D0080938C0080910D
:1003D00088009091890004970CF459C080918A009C
:1003E00090918B00019690938B0080938A001092DD
:1003F00089001092880081309105D1F01CF4892B7E
:1004000039F045C08230910519F1039789F13FC059
:1004100087E0E0E6F0E0ACE7B0E001900D928A956D
:10042000E1F70E9424018CE790E00E942F012FC089
:1004300087E0E7E6F0E0ACE7B0E001900D928A9546
:10044000E1F70E9424018CE790E00E942F011FC079
:1004500087E0EEE6F0E0ACE7B0E001900D928A951F
:10046000E1F70E9424018CE790E00E942F010FC069
:1004700087E0E5E7F0E0ACE7B0E001900D928A9507
:10048000E1F70E9424018CE790E00E942F01809107
:1004900086009091870004970CF459C080918A00DF
:1004A00090918B00019790938B0080938A0010921B
:1004B0008700109286008130910551F11CF4892B40
:1004C000B9F145C08230910599F0039709F03FC01A
:1004D00087E0E0E6F0E0ACE7B0E001900D928A95AD
:1004E000E1F70E9424018CE790E00E942F012FC0C9
:1004F00087E0E7E6F0E0ACE7B0E001900D928A9586
:10050000E1F70E9424018CE790E00E942F011FC0B8
:1005100087E0EEE6F0E0ACE7B0E001900D928A955E
:10052000E1F70E9424018CE790E00E942F010FC0A8
:1005300087E0E5E7F0E0ACE7B0E001900D928A9546
:10054000E1F70E9424018CE790E00E942F01809146
:100550008A0090918B008430910529F410928B00D1
:1005600010928A0006C0992324F410928B001092F6
:100570008A00FF91EF91BF91AF919F918F917F91F1
:100580006F915F914F913F912F910F900FBE0F9000
:100590001F901895CFEFC0B90E94CB000E94240194
:1005A00083E08BBB1ABA18BAC7BB12BC8FE085BDFB
:1005B00014BC83EC83BD80E889BF7894FFCFF894A6
:0205C000FFCF6B
:1005C200546573742031005465737420320054658D
:0C05D200737420330054657374203400EF
:00000001FF
